:100000000C9454000C9473000C9473000C947300C3
:100010000C9473000C9473000C9473000C94730094
:100020000C9473000C9473000C9473000C94730084
:100030000C9473000C94EC000C9473000C947300FB
:100040000C9473000C9473000C9473000C94730064
:100050000C9473000C9473000C9473000C94730054
:100060000C9473000C9473000C9473000C94730044
:100070000C9473000C9473000C9473000C94730034
:100080000C9473000C9473000C9473009E01AA01ED
:10009000CF01EA010F022A024F02EC02EC028502B4
:1000A000B302B602E202E50211241FBECFEFD0E494
:1000B000DEBFCDBF11E0A0E0B1E0EAE5F6E000E090
:1000C0000BBF02C007900D92A231B107D9F721E012
:1000D000A2E1B1E001C01D92AA31B207E1F70E948E
:1000E000F6020C942B030C940000CF93DF9300D006
:1000F0001F92CDB7DEB789837B836A8389818A307B
:1001000031F48A819B81BC018DE00E94750080ECF6
:1001100090E0FC018081882F90E080729927892BE4
:10012000B1F386EC90E02981FC01208380E090E02F
:100130000F900F900F90DF91CF910895CF93DF93A1
:10014000CDB7DEB781E890E02BE0FC01208388E8A2
:1001500090E02BE730E0FC01318320838FE690E0D4
:1001600022E0FC01208384E890E0FC0111821082EF
:1001700080910E0190910F01A0911001B091110199
:100180008093130190931401A0931501B09316016D
:100190008FE590E02FE530E0F90120812068FC0137
:1001A00020830000DF91CF910895CF93DF93CDB7E7
:1001B000DEB781E890E0FC0110820000DF91CF9172
:1001C0000895CF93DF93CDB7DEB781E0809312011E
:1001D0000000DF91CF9108951F920F9200905F0071
:1001E0000F92112400905B000F922F933F934F9337
:1001F0005F936F937F938F939F93AF93BF93EF938F
:10020000FF93CF93DF93CDB7DEB780911301909129
:100210001401A0911501B09116010197A109B1092E
:100220008093130190931401A0931501B0931601CC
:100230008091130190911401A0911501B0911601C4
:10024000892B8A2B8B2B91F40E94E10080910E0167
:1002500090910F01A0911001B091110180931301B1
:1002600090931401A0931501B09316010000DF9143
:10027000CF91FF91EF91BF91AF919F918F917F911E
:100280006F915F914F913F912F910F9000925B0082
:100290000F9000925F000F901F901895CF93DF93FF
:1002A00000D000D0CDB7DEB769837A838B839C837F
:1002B00089819A81AB81BC8180930E0190930F015B
:1002C000A0931001B093110180910E0190910F0144
:1002D000A0911001B091110180931301909314012A
:1002E000A0931501B093160100000F900F900F908E
:1002F0000F90DF91CF910895CF93DF931F92CDB7E9
:10030000DEB780E290E0FC01808180958370898374
:100310008091180190911901CC01A0E0B0E040E07B
:1003200050E026E030E0841B950B2817390708F4CD
:10033000D1C08A5B9F4FFC010C94220385E290E0C0
:1003400027E0FC01208381E090E0909319018093E5
:100350001801C5C08981813039F482E090E0909322
:10036000190180931801BBC08981823039F484E07F
:1003700090E09093190180931801B1C08981833076
:1003800039F486E090E09093190180931801A7C09A
:1003900081E090E09093190180931801A0C08981B9
:1003A000882339F485E090E0909319018093180137
:1003B00096C08981833039F486E090E090931901EA
:1003C000809318018CC082E090E090931901809393
:1003D000180185C08981813039F482E090E09093E2
:1003E0001901809318017BC08981823039F484E03F
:1003F00090E0909319018093180171C08981833036
:1004000039F486E090E0909319018093180167C059
:1004100081E090E0909319018093180160C0898178
:10042000882339F485E090E09093190180931801B6
:1004300056C08981833039F486E090E090931901A9
:10044000809318014CC084E090E090931901809350
:10045000180145C08981813039F482E090E09093A1
:100460001901809318013BC08981823039F484E0FE
:1004700090E0909319018093180131C089818330F5
:1004800039F486E090E0909319018093180127C019
:1004900081E090E0909319018093180120C0898138
:1004A000813039F482E090E0909319018093180133
:1004B00016C08981823039F484E090E0909319016C
:1004C000809318010CC086E090E09093190180930E
:1004D000180105C0109219011092180100008091B6
:1004E000180190911901CC01A0E0B0E040E050E08B
:1004F00026E030E0841B950B2817390708F46AC002
:10050000835B9F4FFC010C942203809117018F5F46
:1005100080931701909117018DEC989F812D1124E4
:10052000869586958695880F282F220F220F820F99
:10053000F92FF81B8F2F882329F080911701813024
:1005400009F04CC085E290E0FC018081893008F020
:1005500045C085E290E023E230E0F90120812F5F81
:10056000FC0120833BC0109217013BC08091170112
:100570008F5F80931701909117018DEC989F812DCB
:100580001124869586958695880F282F220F220F95
:10059000820FF92FF81B8F2F882321F080911701EC
:1005A0008130F1F485E290E0FC0180818823C1F084
:1005B00085E290E023E230E0F90120812150FC0146
:1005C00020830EC0109217010CC085E290E0FC0160
:1005D000108207C0000005C0000003C0000001C079
:1005E000000000000F90DF91CF910895CF93DF932B
:1005F000CDB7DEB784E290E02FEFFC01208385E2E7
:1006000090E0FC01108281E290E0FC01108282E225
:1006100090E02FEFFC01208364E670E080E090E042
:100620000E944E010E949E00109219011092180122
:100630000E947C010000809112018823E1F3109256
:100640001201F6CFEE0FFF1F0024001C0BBE079017
:0A065000F691E02D0994F894FFCF15
:10065A000000000200000000750000000000010018
:02066A0000008E
:00000001FF
